:020000040000FA
:060000000A128A110C280F
:10000800FE00030EF2000A08F3000A128A111728EC
:100018000A128A110F28F501F601F701F801830188
:100028000A128A11DD28831203130C1F1C281D28AD
:1000380039287503031D2128222829281E08F100C4
:100048007108F7001F15F50130281E08F100710826
:10005800F6001F11F501F50A0C132730F100F10B1A
:1000680033283628831203139F148C1D3C283D28FF
:1000780060280A128A11E6200A128A11F100710812
:10008800F8007803031D49284A28512877080A12DE
:100098008A11F6200A128A115D2802307806031D9B
:1000A800562857285D2876080A128A11F6200A125F
:1000B8008A11831203138C1173088A00720E83004D
:1000C800FE0E7E0E0900831603130F178F160F16E8
:1000D8000F14831603178901033088002330831611
:1000E80003138500183087008801890183120313E0
:1000F80085018701880189010A128A11C7200A121D
:100108008A118B178B160B110B17831203138C1183
:10011800831603138C1585160C17831203130C13FF
:1001280083160313811281110115811401140A30F9
:10013800831203138100A001A101A20124300A1235
:100148008A11A9200A128A110800F40083160313E1
:100158008712741DB028B128B92883120313220806
:100168008316031394008715C128831203132008EC
:10017800220483160313940087117408831203134F
:10018800210494000800831603139F131F129F1263
:10019800831203131F083F3980389F00C3309F051F
:1001A8001F142130F400F40BD728831203139F1473
:1001B80008000A128A1167200A128A11E2280A1214
:1001C8008A110C280A128A11EF200A128A11831246
:1001D80003131308080083160313141CF428F528C6
:1001E800EF280800F000700883120313930008003A
:04400E00C420FF3F8C
:00000001FF
