:020000040000FA
:060000000A128A110C280F
:10000800FE00030EF2000A08F3000A128A111728EC
:100018000A128A110F28F501F601F701F801830188
:100028000A128A11FB28831203130C1F1C281D288F
:1000380039287503031D2128222829281E08F100C4
:100048007108F7001F15F50130281E08F100710826
:10005800F6001F11F501F50A0C132730F100F10B1A
:1000680033283628831203139F148C1D3C283D28FF
:1000780060280A128A1104210A128A11F1007108F3
:10008800F8007803031D49284A28512877080A12DE
:100098008A1114210A128A115D2802307806031D7C
:1000A800562857285D2876080A128A1114210A1240
:1000B8008A11831203138C110B1C632864286B2884
:1000C80006186728682869286A2806080B10730824
:1000D8008A00720E8300FE0E7E0E0900831603133B
:1000E8000F178F160F160F14831603178901033085
:1000F8008800233083160313850018308700880191
:1001080089010330860003308312031386008501BA
:100118008701880189010A128A11DB200A128A11D3
:100128000A128A11F1200A128A118B178B160B11E9
:100138000B17831203138C11831603138C15851662
:100148000C17831203130C138316031381128111E6
:100158000115811401140A30831203138100A001D0
:10016800A101A20124300A128A11BD200A128A11A3
:100178000800F400831603138712741DC428C528C9
:10018800CD288312031322088316031394008715BE
:10019800D52883120313200822048316031394001E
:1001A800871174088312031321049400080083162E
:1001B80003139F131F129F12831203131F083F3943
:1001C80080389F00C3309F051F142130F400F40BC2
:1001D800EB28831203139F1408008316031381135B
:1001E800033095008B150B100330960008000A1297
:1001F8008A1172200A128A1100290A128A110C28FF
:100208000A128A110D210A128A1183120313130884
:10021800080083160313141C122913290D2908003A
:0C022800F000700883120313930008001C
:04400E00C420FF3F8C
:00000001FF
