:020000040000FA
:060000000A128A110C280F
:10000800FE00030EF8000A08F9000A128A11FF29F7
:100018000A128A110F280A128A11A3240A128A11B5
:10002800C6000A128A11A4240A128A11C700B9014B
:10003800BA01BB01BC01BD01BE01BF01C001C101C4
:10004800C201C301C401C501FA01FB01FC01FD01A4
:1000580083010A128A1130280A128A11D3230A123C
:100068008A11831203130711033083120313B0009C
:100078009730AF00AF0B3E28B00B3E288312031316
:1000880047080A128A119D240A128A11831203133F
:100098004703031D5028512860280A128A118D240D
:1000A8000A128A1183120313AF002F08C40002300A
:1000B800AF002F08C700722802304706031D6528C5
:1000C800662872280A128A118D240A128A1183124C
:1000D8000313AF002F08C500C701C70A03308312F6
:1000E8000313B0009730AF00AF0B7828B00B782817
:1000F800831203130715033083120313B1008A30E8
:10010800B0005530AF00AF0B8728B00B8728B10B74
:1001180087281030831203133F02031C9428952864
:100128009928BF01831603130C1633308312A600D7
:100138000030A7004508AF00B0012F08A80030081C
:10014800A9000A128A116A230A128A118312031358
:100158002608B1003108BE003330A6000030A700E1
:100168004508AF00B0012F08A0003008A100643096
:10017800A2000030A3000A128A111C240A128A1154
:10018800831203132108A9002008A8000A128A1163
:100198006A230A128A11831203132608B10027085A
:1001A800B2003E08B300B4013308A0003408A1002F
:1001B8009C30A200FF30A3000A128A111C240A12E4
:1001C8008A118312031320083107B7002108031886
:1001D800210A3207B8000A30A6000030A700380804
:1001E800A9003708A8000A128A116A230A128A117C
:1001F800831203132608AF002F08BD003330A60072
:100208000030A7004508AF00B0012F08A000300853
:10021800A1006430A2000030A3000A128A111C2435
:100228000A128A11831203132108A9002008A800C2
:100238000A128A116A230A128A11831203132608E2
:10024800B1002708B2009C30B3003308A0003E0874
:100258000A128A1161240A128A1183120313B40044
:10026800F630B5003508A0003D080A128A1161244D
:100278000A128A118312031334073107B6003608AD
:10028800BC003330A6000030A7004408AF00B0011E
:100298002F08A8003008A9000A128A116A230A1236
:1002A8008A11831203132608B1003108BB003330CA
:1002B800A6000030A7004408AF00B0012F08A00036
:1002C8003008A1006430A2000030A3000A128A118D
:1002D8001C240A128A11831203132108A90020087A
:1002E800A8000A128A116A230A128A1183120313B8
:1002F8002608B1002708B2003B08B300B401330850
:10030800A0003408A1009C30A200FF30A3000A120C
:100318008A111C240A128A11831203132008310738
:10032800B70021080318210A3207B8000A30A600CE
:100338000030A7003808A9003708A8000A128A1157
:100348006A230A128A11831203132608AF002F08A2
:10035800BA003330A6000030A7004408AF00B0014F
:100368002F08A0003008A1006430A2000030A300CC
:100378000A128A111C240A128A11831203132108F3
:10038800A9002008A8000A128A116A230A128A11F1
:10039800831203132608B1002708B2009C30B3006B
:1003A8003308A0003B080A128A1161240A128A1134
:1003B80083120313B400F630B5003508A0003A08DC
:1003C8000A128A1161240A128A118312031334074C
:1003D8003107B6003608B900851CF329F4293528F9
:1003E800FB01C0018501C601C60AC301C201352847
:1003F8000A128A110C280B1D022A032A0A2A013024
:10040800F400740883120313BF070B11831203133C
:100418008C1E0F2A102ADD2A0D301A06031D152AF4
:10042800162A1A2A40088800023085000D301A065C
:1004380003191F2A202ADD2A1A08F4007408FD006F
:1004480030307D06031D292A2A2A2C2AFB018D2AF1
:1004580031307D06031D312A322A352AFB01FB0A79
:100468008D2A32307D06031D3A2A3B2A402A023063
:10047800F4007408FB008D2A33307D06031D452ADD
:10048800462A4B2A0330F4007408FB008D2A3430C6
:100498007D06031D502A512A562A0430F400740898
:1004A800FB008D2A35307D06031D5B2A5C2A612AF4
:1004B8000530F4007408FB008D2A36307D06031DD4
:1004C800662A672A6C2A0630F4007408FB008D2A15
:1004D80037307D06031D712A722A772A0730F40007
:1004E8007408FB008D2A38307D06031D7C2A7D2A7E
:1004F800822A0830F4007408FB008D2A39307D0602
:10050800031D872A882A8D2A0930F4007408FB0005
:100518008D2A4603031D912A922A9E2A7B08F400FD
:100528007408C0007B08F4007408FC00C601C3010D
:10053800C30ADD2A4303031DA22AA32ABB2A0A30C1
:10054800F4007408F0007C080A128A1178240A1250
:100558008A117B07F500750883120313C0007B0816
:10056800F4007408C100C301C201C20ADD2A4203B3
:10057800031DBF2AC02ADD2A0A30F4007408F000DF
:1005880041080A128A1178240A128A11F500643087
:10059800F6007608F0007C080A128A1178240A12FC
:1005A8008A1175077B07F700770883120313C000C9
:1005B800B72A0C1EE02AE12A632B7A08031DE52AD4
:1005C800E62AEC2A3E08303E9900FA01FA0A622B24
:1005D8007A03031DF02AF12AF82A2E3099000230F6
:1005E800F4007408FA00622B02307A06031DFD2A13
:1005F800FE2A062B3D08303E99000330F4007408AB
:10060800FA00622B03307A06031D0B2B0C2B142BDC
:100618003C08303E99000430F4007408FA00622B5C
:1006280004307A06031D192B1A2B212B2D30990023
:100638000530F4007408FA00622B05307A06031DB1
:10064800262B272B2F2B3B08303E99000630F40031
:100658007408FA00622B06307A06031D342B352BFA
:100668003C2B2E3099000730F4007408FA00622BF6
:1006780007307A06031D412B422B4A2B3A08303E9D
:1006880099000830F4007408FA00622B08307A06E2
:10069800031D4F2B502B582B3908303E9900093039
:1006A800F4007408FA00622B09307A06031D5D2BEA
:1006B8005E2B622B0D309900FA01622B0C1279081F
:1006C8008A00780E8300FE0E7E0E09008312031343
:1006D800AC01A71F702B712B782BA609A709A60AB6
:1006E8000319A70AAC01AC0AA91F7B2B7C2B852B0D
:1006F800A809A909A80A0319A90A0130AA002A0801
:10070800AC06AD01AE012608270403198C2B8D2BEE
:10071800C42BAB01AB0A9B2B01300310A60DA70D10
:10072800FF3E031D912B0130AA002A08AB07A71F23
:100738009E2B9F2B902B01300310AD0DAE0DFF3E6D
:10074800031DA02B27082902031DAC2B260828020D
:10075800031CAF2BB02BB72B2608A8022708031CB5
:10076800A903A9022D1401300310A70CA60CFF3E03
:10077800031DB82B0130AB02031DC32BC42B9F2BC9
:100788002C080319C82BC92BCE2BAD09AE09AD0A0D
:100798000319AE0A2E08A7002D08A6000800831624
:1007A80003130F178F160F160F14831603178901DB
:1007B800880183160313850186019030870088011C
:1007C8008901831203138501860187018801890144
:1007D8008B178B160B118316031318121815831613
:1007E80003178715CF308316031399009A018312D4
:1007F80003139817181318168316031398168112E3
:1008080081110115811401140A3083120313810028
:10081800831603130711831203130715A001A101FF
:10082800A20120300A128A1143240A128A110800F0
:1008380083120313A401A501201C232C242C2A2C89
:100848002208A4070318A50A2308A50701300310E6
:10085800A20DA30DFF3E031D2B2C01300310A10C8C
:10086800A00CFF3E031D322C20082104031D3D2C43
:100878003E2C202C2508A1002408A0000800831283
:100888000313A30083160313871283120313231D74
:100898004E2C4F2C552C22088316031394008715D1
:1008A8005B2C2008220483160313940087118312FB
:1008B8000313230821049400080083120313A300E0
:1008C800A201231C682C692C6D2C2008A10021088A
:1008D800A2070310A00D0310A30C2308031D752CF9
:1008E800762C652C22080800F300F201731C7D2C7D
:1008F8007E2C822C7008F1007108F2070310F00DAD
:100908000310F30C7308031D8A2C8B2C7A2C7208A5
:1009180008000A128A1196240A128A1183120313F4
:100928001308080083160313141C9B2C9C2C962C6C
:10093800080083120313A000200893000800013464
:02094800013478
:04400E00C420FF3F8C
:00000001FF
