:020000040000FA
:060000000A128A110E280D
:10000800FE00030EF8000408F9000A08FA000A12B4
:100018008A11012A0A128A1111280A128A119424B3
:100028000A128A11C7000A128A1195240A128A1123
:10003800C800B901BA01BB01BC01BD01BE01BF01C5
:10004800C001C101C201C301C401C501C601FB0150
:10005800FC01FD0183010A128A1132280A128A1151
:10006800C4230A128A11831203130711033083125F
:100078000313B0009730AF00AF0B4028B00B4028F7
:100088008312031348080A128A118E240A128A114D
:10009800831203134803031D5228532862280A12A7
:1000A8008A117E240A128A1183120313AF002F08C3
:1000B800C5000230AF002F08C80074280230480677
:1000C800031D6728682874280A128A117E240A12D8
:1000D8008A1183120313AF002F08C600C801C80A8B
:1000E800033083120313B0009730AF00AF0B7A28A8
:1000F800B00B7A28831203130715033083120313F6
:10010800B1008A30B0005530AF00AF0B8928B00B72
:100118008928B10B89281030831203133F02031C6E
:10012800962897289B28BF01831603130C16333093
:100138008312A6000030A7004608AF00B0012F08C0
:10014800A8003008A9000A128A115B230A128A1132
:10015800831203132608B1003108BE003330A6000D
:100168000030A7004608AF00B0012F08A0003008F3
:10017800A1006430A2000030A3000A128A110D24E5
:100188000A128A11831203132108A9002008A80063
:100198000A128A115B230A128A1183120313260892
:1001A800B1002708B2003E08B300B4013308A0002C
:1001B8003408A1009C30A200FF30A3000A128A1163
:1001C8000D240A128A118312031320083107B7007D
:1001D80021080318210A3207B8000A30A6000030A7
:1001E800A7003808A9003708A8000A128A115B235B
:1001F8000A128A11831203132608AF002F08BD00C4
:100208003330A6000030A7004608AF00B0012F0821
:10021800A0003008A1006430A2000030A3000A1238
:100228008A110D240A128A11831203132108A900C6
:100238002008A8000A128A115B230A128A11831265
:1002480003132608B1002708B2009C30B300330816
:10025800A0003E080A128A1152240A128A11831237
:100268000313B400F630B5003508A0003D080A12A3
:100278008A1152240A128A11831203133407310790
:10028800B6003608BC003330A6000030A700450889
:10029800AF00B0012F08A8003008A9000A128A117F
:1002A8005B230A128A11831203132608B10031084E
:1002B800BB003330A6000030A7004508AF00B001EE
:1002C8002F08A0003008A1006430A2000030A3006D
:1002D8000A128A110D240A128A11831203132108A3
:1002E800A9002008A8000A128A115B230A128A11A1
:1002F800831203132608B1002708B2003B08B30095
:10030800B4013308A0003408A1009C30A200FF30DB
:10031800A3000A128A110D240A128A1183120313E8
:1003280020083107B70021080318210A3207B8004E
:100338000A30A6000030A7003808A9003708A8002E
:100348000A128A115B230A128A11831203132608E0
:10035800AF002F08BA003330A6000030A7004508C8
:10036800AF00B0012F08A0003008A1006430A2003F
:100378000030A3000A128A110D240A128A1183126E
:1003880003132108A9002008A8000A128A115B2378
:100398000A128A11831203132608B1002708B20033
:1003A8009C30B3003308A0003B080A128A1152247B
:1003B8000A128A1183120313B400F630B500350807
:1003C800A0003A080A128A1152240A128A118312CA
:1003D800031334073107B6003608B900851CF52920
:1003E800F6293728FC01C0018501C701C70AC301E6
:1003F800C20137280A128A110E280B1D042A052A61
:100408000C2A0130F400740883120313BF070B1180
:10041800831203138C1E112A122ACC2A0D301A06B5
:10042800031D172A182A1C2A400888000230850054
:100438000D301A060319212A222ACC2A1A08F40098
:100448007408C400542AFC017C2AFC01FC0A7C2A9A
:100458000230F4007408FC007C2A0330F4007408AD
:10046800FC007C2A0430F4007408FC007C2A053067
:10047800F4007408FC007C2A0630F4007408FC00C0
:100488007C2A0730F4007408FC007C2A0830F40049
:100498007408FC007C2A0930F4007408FC007C2AEB
:1004A8004408F400F5017508003A03195C2A7C2A0F
:1004B8007408303A0319272A013A0319292A033AFA
:1004C80003192C2A013A0319312A073A0319362A43
:1004D800013A03193B2A033A0319402A013A03193E
:1004E800452A0F3A03194A2A013A03194F2A7C2A46
:1004F8004703031D802A812A8D2A7C08F40074088A
:10050800C0007C08F4007408FD00C701C301C30AD9
:10051800CC2A4303031D912A922AAA2A0A30F400FE
:100528007408F0007D080A128A1169240A128A11D7
:100538007C07F500750883120313C0007C08F400DB
:100548007408C100C301C201C20ACC2A4203031DB8
:10055800AE2AAF2ACC2A0A30F4007408F000410809
:100568000A128A1169240A128A11F5006430F60009
:100578007608F0007D080A128A1169240A128A1185
:1005880075077C07F700770883120313C000A62AB3
:100598000C1ECF2AD02A522B7B08031DD42AD52A19
:1005A800DB2A3E08303E9900FB01FB0A512B7B03F6
:1005B800031DDF2AE02AE72A2E3099000230F400D2
:1005C8007408FB00512B02307B06031DEC2AED2A30
:1005D800F52A3D08303E99000330F4007408FB000A
:1005E800512B03307B06031DFA2AFB2A032B3C08F8
:1005F800303E99000430F4007408FB00512B04309D
:100608007B06031D082B092B102B2D309900053074
:10061800F4007408FB00512B05307B06031D152BD5
:10062800162B1E2B3B08303E99000630F400740848
:10063800FB00512B06307B06031D232B242B2B2B71
:100648002E3099000730F4007408FB00512B073056
:100658007B06031D302B312B392B3A08303E99008D
:100668000830F4007408FB00512B08307B06031D8A
:100678003E2B3F2B472B3908303E99000930F400B8
:100688007408FB00512B09307B06031D4C2B4D2BA6
:10069800512B0D309900FB01512B0C127A088A005E
:1006A80079088400780E8300FE0E7E0E09008312FE
:1006B8000313AC01A71F612B622B692BA609A7099D
:1006C800A60A0319A70AAC01AC0AA91F6C2B6D2B4B
:1006D800762BA809A909A80A0319A90A0130AA00B2
:1006E8002A08AC06AD01AE012608270403197D2BA4
:1006F8007E2BB52BAB01AB0A8C2B01300310A60D5A
:10070800A70DFF3E031D822B0130AA002A08AB0764
:10071800A71F8F2B902B812B01300310AD0DAE0D31
:10072800FF3E031D912B27082902031D9D2B260838
:100738002802031CA02BA12BA82B2608A8022708F7
:10074800031CA903A9022D1401300310A70CA60C41
:10075800FF3E031DA92B0130AB02031DB42BB52BA3
:10076800902B2C080319B92BBA2BBF2BAD09AE0956
:10077800AD0A0319AE0A2E08A7002D08A600080026
:10078800831603130F178F160F160F1483160317EC
:10079800890188018316031385018601903087003B
:1007A8008801890183120313850186018701880165
:1007B80089018B178B160B11831603131812181542
:1007C800831603178715CF308316031399009A01F0
:1007D8008312031398171813181683160313981601
:1007E800811281110115811401140A308312031337
:1007F8008100831603130711831203130715A00141
:10080800A101A20120300A128A1134240A128A1185
:10081800080083120313A401A501201C142C152C15
:100828001B2C2208A4070318A50A2308A5070130D2
:100838000310A20DA30DFF3E031D1C2C0130031055
:10084800A10CA00CFF3E031D232C20082104031D2E
:100858002E2C2F2C112C2508A1002408A0000800FC
:1008680083120313A300831603138712831203133F
:10087800231D3F2C402C462C22088316031394007A
:1008880087154C2C20082204831603139400871123
:10089800831203132308210494000800831203130E
:1008A800A300A201231C592C5A2C5E2C2008A1005D
:1008B8002108A2070310A00D0310A30C2308031D91
:1008C800662C672C562C22080800F300F201731CD2
:1008D8006E2C6F2C732C7008F1007108F20703104E
:1008E800F00D0310F30C7308031D7B2C7C2C6B2C70
:1008F800720808000A128A1187240A128A118312C0
:1009080003131308080083160313141C8C2C8D2C56
:10091800872C080083120313A00020089300080006
:040928000134013461
:04400E00C420FF3F8C
:00000001FF
